{
  "contractName": "ElectionContract",
  "abi": [
    {
      "anonymous": false,
      "inputs": [
        {
          "indexed": false,
          "internalType": "string",
          "name": "electionName",
          "type": "string"
        },
        {
          "indexed": false,
          "internalType": "uint256",
          "name": "candidateId",
          "type": "uint256"
        },
        {
          "indexed": false,
          "internalType": "string",
          "name": "candidateName",
          "type": "string"
        }
      ],
      "name": "CandidateAdded",
      "type": "event"
    },
    {
      "anonymous": false,
      "inputs": [
        {
          "indexed": false,
          "internalType": "string",
          "name": "electionName",
          "type": "string"
        },
        {
          "indexed": false,
          "internalType": "string",
          "name": "candidateName",
          "type": "string"
        },
        {
          "indexed": false,
          "internalType": "uint256",
          "name": "voterId",
          "type": "uint256"
        }
      ],
      "name": "CandidateRemoved",
      "type": "event"
    },
    {
      "anonymous": false,
      "inputs": [
        {
          "indexed": false,
          "internalType": "string",
          "name": "name",
          "type": "string"
        },
        {
          "indexed": false,
          "internalType": "string",
          "name": "description",
          "type": "string"
        }
      ],
      "name": "ElectionCreated",
      "type": "event"
    },
    {
      "anonymous": false,
      "inputs": [
        {
          "indexed": false,
          "internalType": "string",
          "name": "electionName",
          "type": "string"
        }
      ],
      "name": "ElectionStarted",
      "type": "event"
    },
    {
      "anonymous": false,
      "inputs": [
        {
          "indexed": false,
          "internalType": "string",
          "name": "electionName",
          "type": "string"
        }
      ],
      "name": "ElectionStopped",
      "type": "event"
    },
    {
      "anonymous": false,
      "inputs": [
        {
          "indexed": false,
          "internalType": "string",
          "name": "electionName",
          "type": "string"
        },
        {
          "indexed": false,
          "internalType": "uint256",
          "name": "candidateId",
          "type": "uint256"
        },
        {
          "indexed": false,
          "internalType": "string",
          "name": "candidateName",
          "type": "string"
        },
        {
          "indexed": false,
          "internalType": "address",
          "name": "voter",
          "type": "address"
        }
      ],
      "name": "VoteCast",
      "type": "event"
    },
    {
      "inputs": [
        {
          "internalType": "address",
          "name": "",
          "type": "address"
        }
      ],
      "name": "admins",
      "outputs": [
        {
          "internalType": "bool",
          "name": "",
          "type": "bool"
        }
      ],
      "stateMutability": "view",
      "type": "function",
      "constant": true
    },
    {
      "inputs": [
        {
          "internalType": "uint256",
          "name": "",
          "type": "uint256"
        }
      ],
      "name": "electionNames",
      "outputs": [
        {
          "internalType": "string",
          "name": "",
          "type": "string"
        }
      ],
      "stateMutability": "view",
      "type": "function",
      "constant": true
    },
    {
      "inputs": [
        {
          "internalType": "string",
          "name": "",
          "type": "string"
        }
      ],
      "name": "elections",
      "outputs": [
        {
          "internalType": "string",
          "name": "name",
          "type": "string"
        },
        {
          "internalType": "string",
          "name": "description",
          "type": "string"
        },
        {
          "internalType": "bool",
          "name": "isActive",
          "type": "bool"
        },
        {
          "internalType": "uint256",
          "name": "candidateCount",
          "type": "uint256"
        },
        {
          "internalType": "address",
          "name": "admin",
          "type": "address"
        },
        {
          "internalType": "bool",
          "name": "status",
          "type": "bool"
        }
      ],
      "stateMutability": "view",
      "type": "function",
      "constant": true
    },
    {
      "inputs": [
        {
          "internalType": "address",
          "name": "",
          "type": "address"
        }
      ],
      "name": "voters",
      "outputs": [
        {
          "internalType": "bool",
          "name": "",
          "type": "bool"
        }
      ],
      "stateMutability": "view",
      "type": "function",
      "constant": true
    },
    {
      "inputs": [
        {
          "internalType": "string",
          "name": "name",
          "type": "string"
        },
        {
          "internalType": "string",
          "name": "description",
          "type": "string"
        }
      ],
      "name": "createElection",
      "outputs": [],
      "stateMutability": "nonpayable",
      "type": "function"
    },
    {
      "inputs": [
        {
          "internalType": "string",
          "name": "electionName",
          "type": "string"
        },
        {
          "internalType": "uint256",
          "name": "id",
          "type": "uint256"
        },
        {
          "internalType": "string",
          "name": "name",
          "type": "string"
        },
        {
          "internalType": "uint256",
          "name": "voterId",
          "type": "uint256"
        },
        {
          "internalType": "string",
          "name": "partyName",
          "type": "string"
        }
      ],
      "name": "addCandidate",
      "outputs": [],
      "stateMutability": "nonpayable",
      "type": "function"
    },
    {
      "inputs": [
        {
          "internalType": "string",
          "name": "electionName",
          "type": "string"
        },
        {
          "internalType": "uint256",
          "name": "candidateId",
          "type": "uint256"
        }
      ],
      "name": "vote",
      "outputs": [],
      "stateMutability": "nonpayable",
      "type": "function"
    },
    {
      "inputs": [
        {
          "internalType": "string",
          "name": "electionName",
          "type": "string"
        }
      ],
      "name": "getElectionCandidateCount",
      "outputs": [
        {
          "internalType": "uint256",
          "name": "",
          "type": "uint256"
        }
      ],
      "stateMutability": "view",
      "type": "function",
      "constant": true
    },
    {
      "inputs": [
        {
          "internalType": "string",
          "name": "electionName",
          "type": "string"
        },
        {
          "internalType": "uint256",
          "name": "candidateId",
          "type": "uint256"
        }
      ],
      "name": "getCandidateDetails",
      "outputs": [
        {
          "internalType": "uint256",
          "name": "",
          "type": "uint256"
        },
        {
          "internalType": "string",
          "name": "",
          "type": "string"
        },
        {
          "internalType": "uint256",
          "name": "",
          "type": "uint256"
        },
        {
          "internalType": "string",
          "name": "",
          "type": "string"
        },
        {
          "internalType": "uint256",
          "name": "",
          "type": "uint256"
        }
      ],
      "stateMutability": "view",
      "type": "function",
      "constant": true
    },
    {
      "inputs": [
        {
          "internalType": "string",
          "name": "electionName",
          "type": "string"
        }
      ],
      "name": "getWinnerDetails",
      "outputs": [
        {
          "internalType": "string",
          "name": "",
          "type": "string"
        },
        {
          "internalType": "uint256",
          "name": "",
          "type": "uint256"
        },
        {
          "internalType": "string",
          "name": "",
          "type": "string"
        }
      ],
      "stateMutability": "view",
      "type": "function",
      "constant": true
    },
    {
      "inputs": [
        {
          "internalType": "string",
          "name": "electionName",
          "type": "string"
        },
        {
          "internalType": "string",
          "name": "candidateName",
          "type": "string"
        },
        {
          "internalType": "uint256",
          "name": "voterId",
          "type": "uint256"
        }
      ],
      "name": "removeCandidate",
      "outputs": [],
      "stateMutability": "nonpayable",
      "type": "function"
    },
    {
      "inputs": [
        {
          "internalType": "string",
          "name": "electionName",
          "type": "string"
        }
      ],
      "name": "startElection",
      "outputs": [],
      "stateMutability": "nonpayable",
      "type": "function"
    },
    {
      "inputs": [
        {
          "internalType": "string",
          "name": "electionName",
          "type": "string"
        }
      ],
      "name": "stopElection",
      "outputs": [],
      "stateMutability": "nonpayable",
      "type": "function"
    },
    {
      "inputs": [],
      "name": "getElectionNames",
      "outputs": [
        {
          "internalType": "string[]",
          "name": "",
          "type": "string[]"
        }
      ],
      "stateMutability": "view",
      "type": "function",
      "constant": true
    }
  ],
  "bytecode": "0x608060405234801561001057600080fd5b50612fc5806100206000396000f3fe608060405234801561001057600080fd5b50600436106100ea5760003560e01c80637af192641161008c578063a638580311610066578063a63858031461029e578063bd27eca0146102ba578063e220cde5146102d6578063f544bed8146102f4576100ea565b80637af192641461020a5780638f0668ac1461023e578063a3ec138d1461026e576100ea565b806343a40353116100c857806343a403531461016b5780634a3ccc96146101875780636e208684146101bc5780637668dc5b146101d8576100ea565b806339d59bb3146100ef5780633aa5b4331461011f578063429b62e51461013b575b600080fd5b61010960048036038101906101049190612076565b610310565b604051610116919061286c565b60405180910390f35b61013960048036038101906101349190611ee4565b6103bc565b005b61015560048036038101906101509190611e0e565b610711565b6040516101629190612851565b60405180910390f35b61018560048036038101906101809190611fb7565b610731565b005b6101a1600480360381019061019c9190611e37565b610a08565b6040516101b3969594939291906128c5565b60405180910390f35b6101d660048036038101906101d19190611e37565b610ba4565b005b6101f260048036038101906101ed9190611e37565b610ddd565b60405161020193929190612979565b60405180910390f35b610224600480360381019061021f9190611f63565b6110b5565b604051610235959493929190612c2c565b60405180910390f35b61025860048036038101906102539190611e37565b611324565b6040516102659190612c11565b60405180910390f35b61028860048036038101906102839190611e0e565b61134f565b6040516102959190612851565b60405180910390f35b6102b860048036038101906102b39190611f63565b61136f565b005b6102d460048036038101906102cf9190611e78565b61166c565b005b6102de611957565b6040516102eb919061282f565b60405180910390f35b61030e60048036038101906103099190611e37565b611a30565b005b6003818154811061032057600080fd5b90600052602060002001600091509050805461033b90612e48565b80601f016020809104026020016040519081016040528092919081815260200182805461036790612e48565b80156103b45780601f10610389576101008083540402835291602001916103b4565b820191906000526020600020905b81548152906001019060200180831161039757829003601f168201915b505050505081565b6000803373ffffffffffffffffffffffffffffffffffffffff1673ffffffffffffffffffffffffffffffffffffffff16815260200190815260200160002060009054906101000a900460ff16610447576040517f08c379a000000000000000000000000000000000000000000000000000000000815260040161043e90612b91565b60405180910390fd5b60006001846040516104599190612818565b908152602001604051809103902090508060050160149054906101000a900460ff16156104bb576040517f08c379a00000000000000000000000000000000000000000000000000000000081526004016104b290612a91565b60405180910390fd5b8060020160009054906101000a900460ff1661050c576040517f08c379a000000000000000000000000000000000000000000000000000000000815260040161050390612bd1565b60405180910390fd5b3373ffffffffffffffffffffffffffffffffffffffff168160050160009054906101000a900473ffffffffffffffffffffffffffffffffffffffff1673ffffffffffffffffffffffffffffffffffffffff161461059e576040517f08c379a000000000000000000000000000000000000000000000000000000000815260040161059590612af1565b60405180910390fd5b6000806000600190505b8360040154811161062357600084600301600083815260200190815260200160002090508680519060200120816001016040516105e59190612801565b60405180910390201480156105fd5750858160020154145b1561060f578193506001925050610623565b50808061061b90612e7a565b9150506105a8565b5080610664576040517f08c379a000000000000000000000000000000000000000000000000000000000815260040161065b90612ab1565b60405180910390fd5b8260030160008381526020019081526020016000206000808201600090556001820160006106929190611c6a565b60028201600090556003820160006106aa9190611c6a565b600482016000905550508260040160008154809291906106c990612e1e565b91905055507f6d86d3e83e5cf918ccd77dc1ff8dd964a329c18b2a7cc77599d8f8564bdee9db86868660405161070193929190612934565b60405180910390a1505050505050565b60006020528060005260406000206000915054906101000a900460ff1681565b6000803373ffffffffffffffffffffffffffffffffffffffff1673ffffffffffffffffffffffffffffffffffffffff16815260200190815260200160002060009054906101000a900460ff166107bc576040517f08c379a00000000000000000000000000000000000000000000000000000000081526004016107b390612b91565b60405180910390fd5b60006001866040516107ce9190612818565b908152602001604051809103902090508060020160009054906101000a900460ff1661082f576040517f08c379a000000000000000000000000000000000000000000000000000000000815260040161082690612bd1565b60405180910390fd5b8060050160149054906101000a900460ff1615610881576040517f08c379a000000000000000000000000000000000000000000000000000000000815260040161087890612a91565b60405180910390fd5b3373ffffffffffffffffffffffffffffffffffffffff168160050160009054906101000a900473ffffffffffffffffffffffffffffffffffffffff1673ffffffffffffffffffffffffffffffffffffffff1614610913576040517f08c379a000000000000000000000000000000000000000000000000000000000815260040161090a90612a71565b60405180910390fd5b80600401600081548092919061092890612e7a565b91905055506040518060a001604052808681526020018581526020018481526020018381526020016000815250816003016000878152602001908152602001600020600082015181600001556020820151816001019080519060200190610990929190611caa565b506040820151816002015560608201518160030190805190602001906109b7929190611caa565b50608082015181600401559050507fdbbc48772584850c2086f66c22a3654c9e46524ff539fd9d72198d91cb7c13c08686866040516109f893929190612979565b60405180910390a1505050505050565b600181805160208101820180518482526020830160208501208183528095505050505050600091509050806000018054610a4190612e48565b80601f0160208091040260200160405190810160405280929190818152602001828054610a6d90612e48565b8015610aba5780601f10610a8f57610100808354040283529160200191610aba565b820191906000526020600020905b815481529060010190602001808311610a9d57829003601f168201915b505050505090806001018054610acf90612e48565b80601f0160208091040260200160405190810160405280929190818152602001828054610afb90612e48565b8015610b485780601f10610b1d57610100808354040283529160200191610b48565b820191906000526020600020905b815481529060010190602001808311610b2b57829003601f168201915b5050505050908060020160009054906101000a900460ff16908060040154908060050160009054906101000a900473ffffffffffffffffffffffffffffffffffffffff16908060050160149054906101000a900460ff16905086565b6000803373ffffffffffffffffffffffffffffffffffffffff1673ffffffffffffffffffffffffffffffffffffffff16815260200190815260200160002060009054906101000a900460ff16610c2f576040517f08c379a0000000000000000000000000000000000000000000000000000000008152600401610c2690612b91565b60405180910390fd5b6000600182604051610c419190612818565b908152602001604051809103902090508060050160149054906101000a900460ff16610ca2576040517f08c379a0000000000000000000000000000000000000000000000000000000008152600401610c9990612a11565b60405180910390fd5b8060020160009054906101000a900460ff16610cf3576040517f08c379a0000000000000000000000000000000000000000000000000000000008152600401610cea90612bd1565b60405180910390fd5b3373ffffffffffffffffffffffffffffffffffffffff168160050160009054906101000a900473ffffffffffffffffffffffffffffffffffffffff1673ffffffffffffffffffffffffffffffffffffffff1614610d85576040517f08c379a0000000000000000000000000000000000000000000000000000000008152600401610d7c90612af1565b60405180910390fd5b60008160050160146101000a81548160ff0219169083151502179055507f0ffffb4ffe30156faa633adcb15ca767d9106ffff010847cc02920e7d3243ab082604051610dd1919061286c565b60405180910390a15050565b6060600060606000600185604051610df59190612818565b908152602001604051809103902090508060050160149054906101000a900460ff1615610e57576040517f08c379a0000000000000000000000000000000000000000000000000000000008152600401610e4e90612bb1565b60405180910390fd5b3373ffffffffffffffffffffffffffffffffffffffff168160050160009054906101000a900473ffffffffffffffffffffffffffffffffffffffff1673ffffffffffffffffffffffffffffffffffffffff1614610ee9576040517f08c379a0000000000000000000000000000000000000000000000000000000008152600401610ee090612b51565b60405180910390fd5b610ef1611d30565b600080600190505b836004015481116110955760008460030160008381526020019081526020016000206040518060a001604052908160008201548152602001600182018054610f4090612e48565b80601f0160208091040260200160405190810160405280929190818152602001828054610f6c90612e48565b8015610fb95780601f10610f8e57610100808354040283529160200191610fb9565b820191906000526020600020905b815481529060010190602001808311610f9c57829003601f168201915b5050505050815260200160028201548152602001600382018054610fdc90612e48565b80601f016020809104026020016040519081016040528092919081815260200182805461100890612e48565b80156110555780601f1061102a57610100808354040283529160200191611055565b820191906000526020600020905b81548152906001019060200180831161103857829003601f168201915b505050505081526020016004820154815250509050828160800151111561108157806080015192508093505b50808061108d90612e7a565b915050610ef9565b508160200151826040015183606001519550955095505050509193909250565b60006060600060606000806001886040516110d09190612818565b908152602001604051809103902090503373ffffffffffffffffffffffffffffffffffffffff168160050160009054906101000a900473ffffffffffffffffffffffffffffffffffffffff1673ffffffffffffffffffffffffffffffffffffffff1614611172576040517f08c379a000000000000000000000000000000000000000000000000000000000815260040161116990612b31565b60405180910390fd5b60006001896040516111849190612818565b908152602001604051809103902060030160008981526020019081526020016000206040518060a0016040529081600082015481526020016001820180546111cb90612e48565b80601f01602080910402602001604051908101604052809291908181526020018280546111f790612e48565b80156112445780601f1061121957610100808354040283529160200191611244565b820191906000526020600020905b81548152906001019060200180831161122757829003601f168201915b505050505081526020016002820154815260200160038201805461126790612e48565b80601f016020809104026020016040519081016040528092919081815260200182805461129390612e48565b80156112e05780601f106112b5576101008083540402835291602001916112e0565b820191906000526020600020905b8154815290600101906020018083116112c357829003601f168201915b505050505081526020016004820154815250509050806000015181602001518260400151836060015184608001519650965096509650965050509295509295909350565b60006001826040516113369190612818565b9081526020016040518091039020600401549050919050565b60026020528060005260406000206000915054906101000a900460ff1681565b60006001836040516113819190612818565b908152602001604051809103902090508060050160149054906101000a900460ff166113e2576040517f08c379a00000000000000000000000000000000000000000000000000000000081526004016113d990612a11565b60405180910390fd5b8060020160009054906101000a900460ff16611433576040517f08c379a000000000000000000000000000000000000000000000000000000000815260040161142a90612bd1565b60405180910390fd5b600260003373ffffffffffffffffffffffffffffffffffffffff1673ffffffffffffffffffffffffffffffffffffffff16815260200190815260200160002060009054906101000a900460ff16156114c0576040517f08c379a00000000000000000000000000000000000000000000000000000000081526004016114b790612b71565b60405180910390fd5b3373ffffffffffffffffffffffffffffffffffffffff168160050160009054906101000a900473ffffffffffffffffffffffffffffffffffffffff1673ffffffffffffffffffffffffffffffffffffffff161415611553576040517f08c379a000000000000000000000000000000000000000000000000000000000815260040161154a90612a31565b60405180910390fd5b6001600260003373ffffffffffffffffffffffffffffffffffffffff1673ffffffffffffffffffffffffffffffffffffffff16815260200190815260200160002060006101000a81548160ff0219169083151502179055506000816003016000848152602001908152602001600020905060008160000154141561160c576040517f08c379a000000000000000000000000000000000000000000000000000000000815260040161160390612ad1565b60405180910390fd5b80600401600081548092919061162190612e7a565b91905055507f4ec4c159137a6cebaa6ec2243de82cfb69559f6aa1d646783fba93cf82b036a18484836001013360405161165e94939291906129be565b60405180910390a150505050565b6000825111801561167e575060008151115b6116bd576040517f08c379a00000000000000000000000000000000000000000000000000000000081526004016116b490612a51565b60405180910390fd5b60006001836040516116cf9190612818565b90815260200160405180910390206004015414611721576040517f08c379a000000000000000000000000000000000000000000000000000000000815260040161171890612b11565b60405180910390fd5b816001836040516117329190612818565b90815260200160405180910390206000019080519060200190611756929190611caa565b50806001836040516117689190612818565b9081526020016040518091039020600101908051906020019061178c929190611caa565b506001808360405161179e9190612818565b908152602001604051809103902060020160006101000a81548160ff02191690831515021790555060006001836040516117d89190612818565b908152602001604051809103902060040181905550336001836040516117fe9190612818565b908152602001604051809103902060050160006101000a81548173ffffffffffffffffffffffffffffffffffffffff021916908373ffffffffffffffffffffffffffffffffffffffff160217905550600060018360405161185f9190612818565b908152602001604051809103902060050160146101000a81548160ff0219169083151502179055506003829080600181540180825580915050600190039060005260206000200160009091909190915090805190602001906118c2929190611caa565b507f1594903932ed8f9b9f2f2bbc15a18c132591e2c4d3730ba56705aa661662f49c82826040516118f492919061288e565b60405180910390a160016000803373ffffffffffffffffffffffffffffffffffffffff1673ffffffffffffffffffffffffffffffffffffffff16815260200190815260200160002060006101000a81548160ff0219169083151502179055505050565b60606003805480602002602001604051908101604052809291908181526020016000905b82821015611a2757838290600052602060002001805461199a90612e48565b80601f01602080910402602001604051908101604052809291908181526020018280546119c690612e48565b8015611a135780601f106119e857610100808354040283529160200191611a13565b820191906000526020600020905b8154815290600101906020018083116119f657829003601f168201915b50505050508152602001906001019061197b565b50505050905090565b6000803373ffffffffffffffffffffffffffffffffffffffff1673ffffffffffffffffffffffffffffffffffffffff16815260200190815260200160002060009054906101000a900460ff16611abb576040517f08c379a0000000000000000000000000000000000000000000000000000000008152600401611ab290612b91565b60405180910390fd5b6000600182604051611acd9190612818565b908152602001604051809103902090508060050160149054906101000a900460ff1615611b2f576040517f08c379a0000000000000000000000000000000000000000000000000000000008152600401611b2690612a91565b60405180910390fd5b8060020160009054906101000a900460ff16611b80576040517f08c379a0000000000000000000000000000000000000000000000000000000008152600401611b7790612bf1565b60405180910390fd5b3373ffffffffffffffffffffffffffffffffffffffff168160050160009054906101000a900473ffffffffffffffffffffffffffffffffffffffff1673ffffffffffffffffffffffffffffffffffffffff1614611c12576040517f08c379a0000000000000000000000000000000000000000000000000000000008152600401611c0990612af1565b60405180910390fd5b60018160050160146101000a81548160ff0219169083151502179055507f736ec040ea65c273ad673ccd25c5a9543fbe81eac0306098d37ec46c1ba5e9e682604051611c5e919061286c565b60405180910390a15050565b508054611c7690612e48565b6000825580601f10611c885750611ca7565b601f016020900490600052602060002090810190611ca69190611d5f565b5b50565b828054611cb690612e48565b90600052602060002090601f016020900481019282611cd85760008555611d1f565b82601f10611cf157805160ff1916838001178555611d1f565b82800160010185558215611d1f579182015b82811115611d1e578251825591602001919060010190611d03565b5b509050611d2c9190611d5f565b5090565b6040518060a0016040528060008152602001606081526020016000815260200160608152602001600081525090565b5b80821115611d78576000816000905550600101611d60565b5090565b6000611d8f611d8a84612cbe565b612c8d565b905082815260208101848484011115611da757600080fd5b611db2848285612ddc565b509392505050565b600081359050611dc981612f61565b92915050565b600082601f830112611de057600080fd5b8135611df0848260208601611d7c565b91505092915050565b600081359050611e0881612f78565b92915050565b600060208284031215611e2057600080fd5b6000611e2e84828501611dba565b91505092915050565b600060208284031215611e4957600080fd5b600082013567ffffffffffffffff811115611e6357600080fd5b611e6f84828501611dcf565b91505092915050565b60008060408385031215611e8b57600080fd5b600083013567ffffffffffffffff811115611ea557600080fd5b611eb185828601611dcf565b925050602083013567ffffffffffffffff811115611ece57600080fd5b611eda85828601611dcf565b9150509250929050565b600080600060608486031215611ef957600080fd5b600084013567ffffffffffffffff811115611f1357600080fd5b611f1f86828701611dcf565b935050602084013567ffffffffffffffff811115611f3c57600080fd5b611f4886828701611dcf565b9250506040611f5986828701611df9565b9150509250925092565b60008060408385031215611f7657600080fd5b600083013567ffffffffffffffff811115611f9057600080fd5b611f9c85828601611dcf565b9250506020611fad85828601611df9565b9150509250929050565b600080600080600060a08688031215611fcf57600080fd5b600086013567ffffffffffffffff811115611fe957600080fd5b611ff588828901611dcf565b955050602061200688828901611df9565b945050604086013567ffffffffffffffff81111561202357600080fd5b61202f88828901611dcf565b935050606061204088828901611df9565b925050608086013567ffffffffffffffff81111561205d57600080fd5b61206988828901611dcf565b9150509295509295909350565b60006020828403121561208857600080fd5b600061209684828501611df9565b91505092915050565b60006120ab83836121c5565b905092915050565b6120bc81612d94565b82525050565b60006120cd82612d28565b6120d78185612d4b565b9350836020820285016120e985612cee565b8060005b858110156121255784840389528151612106858261209f565b945061211183612d3e565b925060208a019950506001810190506120ed565b50829750879550505050505092915050565b61214081612da6565b82525050565b6000815461215381612e48565b61215d8186612d5c565b945060018216600081146121785760018114612189576121bc565b60ff198316865281860193506121bc565b61219285612cfe565b60005b838110156121b457815481890152600182019150602081019050612195565b838801955050505b50505092915050565b60006121d082612d33565b6121da8185612d67565b93506121ea818560208601612deb565b6121f381612f50565b840191505092915050565b600061220982612d33565b6122138185612d78565b9350612223818560208601612deb565b61222c81612f50565b840191505092915050565b600061224282612d33565b61224c8185612d89565b935061225c818560208601612deb565b80840191505092915050565b6000815461227581612e48565b61227f8186612d78565b9450600182166000811461229a57600181146122ac576122df565b60ff19831686526020860193506122df565b6122b585612d13565b60005b838110156122d7578154818901526001820191506020810190506122b8565b808801955050505b50505092915050565b60006122f5601783612d78565b91507f456c656374696f6e206973206e6f7420737461727465640000000000000000006000830152602082019050919050565b6000612335602c83612d78565b91507f41646d696e206973206e6f7420616c6c6f77656420746f20766f746520696e2060008301527f74686520656c656374696f6e00000000000000000000000000000000000000006020830152604082019050919050565b600061239b601883612d78565b91507f496e76616c696420656c656374696f6e2064657461696c7300000000000000006000830152602082019050919050565b60006123db602183612d78565b91507f4f6e6c79207468652061646d696e2063616e206164642063616e64696461746560008301527f73000000000000000000000000000000000000000000000000000000000000006020830152604082019050919050565b6000612441601383612d78565b91507f456c656374696f6e2069732073746172746564000000000000000000000000006000830152602082019050919050565b6000612481601383612d78565b91507f43616e646964617465206e6f7420666f756e64000000000000000000000000006000830152602082019050919050565b60006124c1601183612d78565b91507f496e76616c69642063616e6469646174650000000000000000000000000000006000830152602082019050919050565b6000612501602483612d78565b91507f4f6e6c79207468652061646d696e2063616e2072656d6f76652063616e64696460008301527f61746573000000000000000000000000000000000000000000000000000000006020830152604082019050919050565b6000612567602a83612d78565b91507f456c656374696f6e2077697468207468652073616d65206e616d6520616c726560008301527f61647920657869737473000000000000000000000000000000000000000000006020830152604082019050919050565b60006125cd602b83612d78565b91507f4f6e6c79207468652061646d696e2063616e206163636573732063616e64696460008301527f6174652064657461696c730000000000000000000000000000000000000000006020830152604082019050919050565b6000612633602883612d78565b91507f4f6e6c79207468652061646d696e2063616e206163636573732077696e6e657260008301527f2064657461696c730000000000000000000000000000000000000000000000006020830152604082019050919050565b6000612699601783612d78565b91507f566f7465722068617320616c726561647920766f7465640000000000000000006000830152602082019050919050565b60006126d9602283612d78565b91507f4f6e6c792061646d696e2063616e20706572666f726d2074686973206163746960008301527f6f6e0000000000000000000000000000000000000000000000000000000000006020830152604082019050919050565b600061273f601583612d78565b91507f456c656374696f6e206973206e6f7420656e64656400000000000000000000006000830152602082019050919050565b600061277f601683612d78565b91507f456c656374696f6e206973206e6f7420616374697665000000000000000000006000830152602082019050919050565b60006127bf601a83612d78565b91507f456c656374696f6e20697320616c7265616479206163746976650000000000006000830152602082019050919050565b6127fb81612dd2565b82525050565b600061280d8284612146565b915081905092915050565b60006128248284612237565b915081905092915050565b6000602082019050818103600083015261284981846120c2565b905092915050565b60006020820190506128666000830184612137565b92915050565b6000602082019050818103600083015261288681846121fe565b905092915050565b600060408201905081810360008301526128a881856121fe565b905081810360208301526128bc81846121fe565b90509392505050565b600060c08201905081810360008301526128df81896121fe565b905081810360208301526128f381886121fe565b90506129026040830187612137565b61290f60608301866127f2565b61291c60808301856120b3565b61292960a0830184612137565b979650505050505050565b6000606082019050818103600083015261294e81866121fe565b9050818103602083015261296281856121fe565b905061297160408301846127f2565b949350505050565b6000606082019050818103600083015261299381866121fe565b90506129a260208301856127f2565b81810360408301526129b481846121fe565b9050949350505050565b600060808201905081810360008301526129d881876121fe565b90506129e760208301866127f2565b81810360408301526129f98185612268565b9050612a0860608301846120b3565b95945050505050565b60006020820190508181036000830152612a2a816122e8565b9050919050565b60006020820190508181036000830152612a4a81612328565b9050919050565b60006020820190508181036000830152612a6a8161238e565b9050919050565b60006020820190508181036000830152612a8a816123ce565b9050919050565b60006020820190508181036000830152612aaa81612434565b9050919050565b60006020820190508181036000830152612aca81612474565b9050919050565b60006020820190508181036000830152612aea816124b4565b9050919050565b60006020820190508181036000830152612b0a816124f4565b9050919050565b60006020820190508181036000830152612b2a8161255a565b9050919050565b60006020820190508181036000830152612b4a816125c0565b9050919050565b60006020820190508181036000830152612b6a81612626565b9050919050565b60006020820190508181036000830152612b8a8161268c565b9050919050565b60006020820190508181036000830152612baa816126cc565b9050919050565b60006020820190508181036000830152612bca81612732565b9050919050565b60006020820190508181036000830152612bea81612772565b9050919050565b60006020820190508181036000830152612c0a816127b2565b9050919050565b6000602082019050612c2660008301846127f2565b92915050565b600060a082019050612c4160008301886127f2565b8181036020830152612c5381876121fe565b9050612c6260408301866127f2565b8181036060830152612c7481856121fe565b9050612c8360808301846127f2565b9695505050505050565b6000604051905081810181811067ffffffffffffffff82111715612cb457612cb3612f21565b5b8060405250919050565b600067ffffffffffffffff821115612cd957612cd8612f21565b5b601f19601f8301169050602081019050919050565b6000819050602082019050919050565b60008190508160005260206000209050919050565b60008190508160005260206000209050919050565b600081519050919050565b600081519050919050565b6000602082019050919050565b600082825260208201905092915050565b600081905092915050565b600082825260208201905092915050565b600082825260208201905092915050565b600081905092915050565b6000612d9f82612db2565b9050919050565b60008115159050919050565b600073ffffffffffffffffffffffffffffffffffffffff82169050919050565b6000819050919050565b82818337600083830152505050565b60005b83811015612e09578082015181840152602081019050612dee565b83811115612e18576000848401525b50505050565b6000612e2982612dd2565b91506000821415612e3d57612e3c612ec3565b5b600182039050919050565b60006002820490506001821680612e6057607f821691505b60208210811415612e7457612e73612ef2565b5b50919050565b6000612e8582612dd2565b91507fffffffffffffffffffffffffffffffffffffffffffffffffffffffffffffffff821415612eb857612eb7612ec3565b5b600182019050919050565b7f4e487b7100000000000000000000000000000000000000000000000000000000600052601160045260246000fd5b7f4e487b7100000000000000000000000000000000000000000000000000000000600052602260045260246000fd5b7f4e487b7100000000000000000000000000000000000000000000000000000000600052604160045260246000fd5b6000601f19601f8301169050919050565b612f6a81612d94565b8114612f7557600080fd5b50565b612f8181612dd2565b8114612f8c57600080fd5b5056fea264697066735822122001753170b69aa278ad1156d3bd66b4dbb8eeff70232def0c4a3591d232e68ac964736f6c63430008000033",
  "immutableReferences": {},
  "source": "// SPDX-License-Identifier: GPL-3.0\npragma solidity ^0.8.0;\n\ncontract ElectionContract {\n    // Struct to store candidate details\n    struct Candidate {\n        uint id;\n        string name;\n        uint voterId;\n        string partyName;\n        uint voteCount;\n    }\n\n    // Struct to store election details\n    struct ElectionDetails {\n        string name;\n        string description;\n        bool isActive;\n        mapping(uint => Candidate) candidates;\n        uint candidateCount;\n        address admin;\n        bool status;\n    }\n\n    mapping(address => bool) public admins;\n    mapping(string => ElectionDetails) public elections;\n    mapping(address => bool) public voters;\n    string[] public electionNames;\n\n    event ElectionCreated(string name, string description);\n    event CandidateAdded(\n        string electionName,\n        uint candidateId,\n        string candidateName\n    );\n    event VoteCast(\n        string electionName,\n        uint candidateId,\n        string candidateName,\n        address voter\n    );\n    event CandidateRemoved(\n        string electionName,\n        string candidateName,\n        uint voterId\n    );\n    event ElectionStarted(string electionName);\n    event ElectionStopped(string electionName);\n\n    modifier onlyAdmin() {\n        require(admins[msg.sender], \"Only admin can perform this action\");\n        _;\n    }\n\n    function createElection(\n        string memory name,\n        string memory description\n    ) public {\n        require(\n            bytes(name).length > 0 && bytes(description).length > 0,\n            \"Invalid election details\"\n        );\n        require(\n            elections[name].candidateCount == 0,\n            \"Election with the same name already exists\"\n        );\n\n        elections[name].name = name;\n        elections[name].description = description;\n        elections[name].isActive = true;\n        elections[name].candidateCount = 0;\n        elections[name].admin = msg.sender;\n        elections[name].status = false;\n        electionNames.push(name);\n        emit ElectionCreated(name, description);\n        admins[msg.sender] = true;\n    }\n\n    function addCandidate(\n        string memory electionName,\n        uint id,\n        string memory name,\n        uint voterId,\n        string memory partyName\n    ) public onlyAdmin {\n        ElectionDetails storage election = elections[electionName];\n        require(election.isActive, \"Election is not active\");\n        require(!election.status, \"Election is started\");\n        require(\n            election.admin == msg.sender,\n            \"Only the admin can add candidates\"\n        );\n\n        election.candidateCount++;\n        election.candidates[id] = Candidate(id, name, voterId, partyName, 0);\n        emit CandidateAdded(electionName, id, name);\n    }\n\n    function vote(string memory electionName, uint candidateId) public {\n        ElectionDetails storage election = elections[electionName];\n        require(election.status, \"Election is not started\");\n        require(election.isActive, \"Election is not active\");\n        require(!voters[msg.sender], \"Voter has already voted\");\n        require(\n            election.admin != msg.sender,\n            \"Admin is not allowed to vote in the election\"\n        );\n        voters[msg.sender] = true;\n\n        Candidate storage candidate = election.candidates[candidateId];\n        require(candidate.id != 0, \"Invalid candidate\");\n\n        candidate.voteCount++;\n        emit VoteCast(electionName, candidateId, candidate.name, msg.sender);\n    }\n\n    function getElectionCandidateCount(\n        string memory electionName\n    ) public view returns (uint) {\n        return elections[electionName].candidateCount;\n    }\n\n    function getCandidateDetails(\n        string memory electionName,\n        uint candidateId\n    ) public view returns (uint, string memory, uint, string memory, uint) {\n        ElectionDetails storage election = elections[electionName];\n        require(\n            election.admin == msg.sender,\n            \"Only the admin can access candidate details\"\n        );\n        Candidate memory candidate = elections[electionName].candidates[\n            candidateId\n        ];\n        return (\n            candidate.id,\n            candidate.name,\n            candidate.voterId,\n            candidate.partyName,\n            candidate.voteCount\n        );\n    }\n\n    function getWinnerDetails(\n        string memory electionName\n    ) public view returns (string memory, uint, string memory) {\n        ElectionDetails storage election = elections[electionName];\n        require(!election.status, \"Election is not ended\");\n        require(\n            election.admin == msg.sender,\n            \"Only the admin can access winner details\"\n        );\n        Candidate memory winner;\n        uint maxVotes = 0;\n        for (uint i = 1; i <= election.candidateCount; i++) {\n            Candidate memory candidate = election.candidates[i];\n            if (candidate.voteCount > maxVotes) {\n                maxVotes = candidate.voteCount;\n                winner = candidate;\n            }\n        }\n        return (winner.name, winner.voterId, winner.partyName);\n    }\n\n    function removeCandidate(\n        string memory electionName,\n        string memory candidateName,\n        uint voterId\n    ) public onlyAdmin {\n        ElectionDetails storage election = elections[electionName];\n        require(!election.status, \"Election is started\");\n        require(election.isActive, \"Election is not active\");\n        require(\n            election.admin == msg.sender,\n            \"Only the admin can remove candidates\"\n        );\n\n        uint candidateId = 0;\n        bool candidateFound = false;\n        for (uint i = 1; i <= election.candidateCount; i++) {\n            Candidate storage candidate = election.candidates[i];\n            if (\n                keccak256(bytes(candidate.name)) ==\n                keccak256(bytes(candidateName)) &&\n                candidate.voterId == voterId\n            ) {\n                candidateId = i;\n                candidateFound = true;\n                break;\n            }\n        }\n        require(candidateFound, \"Candidate not found\");\n\n        delete election.candidates[candidateId];\n        election.candidateCount--;\n        emit CandidateRemoved(electionName, candidateName, voterId);\n    }\n\n    function startElection(string memory electionName) public onlyAdmin {\n        ElectionDetails storage election = elections[electionName];\n        require(!election.status, \"Election is started\");\n        require(election.isActive, \"Election is already active\");\n        require(\n            election.admin == msg.sender,\n            \"Only the admin can remove candidates\"\n        );\n\n        election.status = true;\n        emit ElectionStarted(electionName);\n    }\n\n    function stopElection(string memory electionName) public onlyAdmin {\n        ElectionDetails storage election = elections[electionName];\n        require(election.status, \"Election is not started\");\n        require(election.isActive, \"Election is not active\");\n        require(\n            election.admin == msg.sender,\n            \"Only the admin can remove candidates\"\n        );\n\n        election.status = false;\n        emit ElectionStopped(electionName);\n    }\n\n    function getElectionNames() public view returns (string[] memory) {\n        return electionNames;\n    }\n}\n",
  "sourcePath": "/home/vipi/FinalProject/votem/client/contracts/ElectionContract.sol",
  "compiler": {
    "name": "solc",
    "version": "0.8.0+commit.c7dfd78e.Emscripten.clang"
  },
  "schemaVersion": "3.4.14",
  "updatedAt": "2023-05-28T14:03:38.766Z",
  "networkType": "ethereum",
  "devdoc": {
    "kind": "dev",
    "methods": {},
    "version": 1
  },
  "userdoc": {
    "kind": "user",
    "methods": {},
    "version": 1
  }
}