{
  "contractName": "Election",
  "abi": [
    {
      "anonymous": false,
      "inputs": [
        {
          "indexed": false,
          "internalType": "string",
          "name": "electionName",
          "type": "string"
        },
        {
          "indexed": false,
          "internalType": "uint256",
          "name": "candidateId",
          "type": "uint256"
        },
        {
          "indexed": false,
          "internalType": "string",
          "name": "candidateName",
          "type": "string"
        }
      ],
      "name": "CandidateAdded",
      "type": "event"
    },
    {
      "anonymous": false,
      "inputs": [
        {
          "indexed": false,
          "internalType": "string",
          "name": "name",
          "type": "string"
        },
        {
          "indexed": false,
          "internalType": "string",
          "name": "description",
          "type": "string"
        }
      ],
      "name": "ElectionCreated",
      "type": "event"
    },
    {
      "anonymous": false,
      "inputs": [
        {
          "indexed": false,
          "internalType": "string",
          "name": "electionName",
          "type": "string"
        },
        {
          "indexed": false,
          "internalType": "uint256",
          "name": "candidateId",
          "type": "uint256"
        },
        {
          "indexed": false,
          "internalType": "string",
          "name": "candidateName",
          "type": "string"
        },
        {
          "indexed": false,
          "internalType": "address",
          "name": "voter",
          "type": "address"
        }
      ],
      "name": "VoteCast",
      "type": "event"
    },
    {
      "inputs": [
        {
          "internalType": "address",
          "name": "",
          "type": "address"
        }
      ],
      "name": "admins",
      "outputs": [
        {
          "internalType": "bool",
          "name": "",
          "type": "bool"
        }
      ],
      "stateMutability": "view",
      "type": "function"
    },
    {
      "inputs": [
        {
          "internalType": "string",
          "name": "",
          "type": "string"
        }
      ],
      "name": "elections",
      "outputs": [
        {
          "internalType": "string",
          "name": "name",
          "type": "string"
        },
        {
          "internalType": "string",
          "name": "description",
          "type": "string"
        },
        {
          "internalType": "bool",
          "name": "isActive",
          "type": "bool"
        },
        {
          "internalType": "uint256",
          "name": "candidateCount",
          "type": "uint256"
        },
        {
          "internalType": "address",
          "name": "admin",
          "type": "address"
        }
      ],
      "stateMutability": "view",
      "type": "function"
    },
    {
      "inputs": [
        {
          "internalType": "address",
          "name": "",
          "type": "address"
        }
      ],
      "name": "voters",
      "outputs": [
        {
          "internalType": "bool",
          "name": "",
          "type": "bool"
        }
      ],
      "stateMutability": "view",
      "type": "function"
    },
    {
      "inputs": [
        {
          "internalType": "string",
          "name": "name",
          "type": "string"
        },
        {
          "internalType": "string",
          "name": "description",
          "type": "string"
        }
      ],
      "name": "createElection",
      "outputs": [],
      "stateMutability": "nonpayable",
      "type": "function"
    },
    {
      "inputs": [
        {
          "internalType": "string",
          "name": "electionName",
          "type": "string"
        },
        {
          "internalType": "uint256",
          "name": "id",
          "type": "uint256"
        },
        {
          "internalType": "string",
          "name": "name",
          "type": "string"
        },
        {
          "internalType": "uint256",
          "name": "voterId",
          "type": "uint256"
        },
        {
          "internalType": "string",
          "name": "partyName",
          "type": "string"
        }
      ],
      "name": "addCandidate",
      "outputs": [],
      "stateMutability": "nonpayable",
      "type": "function"
    },
    {
      "inputs": [
        {
          "internalType": "string",
          "name": "electionName",
          "type": "string"
        },
        {
          "internalType": "uint256",
          "name": "candidateId",
          "type": "uint256"
        }
      ],
      "name": "vote",
      "outputs": [],
      "stateMutability": "nonpayable",
      "type": "function"
    },
    {
      "inputs": [
        {
          "internalType": "string",
          "name": "electionName",
          "type": "string"
        }
      ],
      "name": "getElectionCandidateCount",
      "outputs": [
        {
          "internalType": "uint256",
          "name": "",
          "type": "uint256"
        }
      ],
      "stateMutability": "view",
      "type": "function"
    },
    {
      "inputs": [
        {
          "internalType": "string",
          "name": "electionName",
          "type": "string"
        },
        {
          "internalType": "uint256",
          "name": "candidateId",
          "type": "uint256"
        }
      ],
      "name": "getCandidateDetails",
      "outputs": [
        {
          "internalType": "uint256",
          "name": "",
          "type": "uint256"
        },
        {
          "internalType": "string",
          "name": "",
          "type": "string"
        },
        {
          "internalType": "uint256",
          "name": "",
          "type": "uint256"
        },
        {
          "internalType": "string",
          "name": "",
          "type": "string"
        },
        {
          "internalType": "uint256",
          "name": "",
          "type": "uint256"
        }
      ],
      "stateMutability": "view",
      "type": "function"
    },
    {
      "inputs": [
        {
          "internalType": "string",
          "name": "electionName",
          "type": "string"
        }
      ],
      "name": "getWinnerDetails",
      "outputs": [
        {
          "internalType": "string",
          "name": "",
          "type": "string"
        },
        {
          "internalType": "uint256",
          "name": "",
          "type": "uint256"
        },
        {
          "internalType": "string",
          "name": "",
          "type": "string"
        }
      ],
      "stateMutability": "view",
      "type": "function"
    }
  ],
  "bytecode": "0x608060405234801561001057600080fd5b50611da9806100206000396000f3fe608060405234801561001057600080fd5b50600436106100935760003560e01c80637af19264116100665780637af192641461014a5780638f0668ac1461017e578063a3ec138d146101ae578063a6385803146101de578063bd27eca0146101fa57610093565b8063429b62e51461009857806343a40353146100c85780634a3ccc96146100e45780637668dc5b14610118575b600080fd5b6100b260048036038101906100ad9190611209565b610216565b6040516100bf919061181e565b60405180910390f35b6100e260048036038101906100dd9190611333565b610236565b005b6100fe60048036038101906100f99190611232565b6104bb565b60405161010f959493929190611870565b60405180910390f35b610132600480360381019061012d9190611232565b610644565b604051610141939291906118d1565b60405180910390f35b610164600480360381019061015f91906112df565b6108ca565b604051610175959493929190611aa4565b60405180910390f35b61019860048036038101906101939190611232565b610b39565b6040516101a59190611a89565b60405180910390f35b6101c860048036038101906101c39190611209565b610b64565b6040516101d5919061181e565b60405180910390f35b6101f860048036038101906101f391906112df565b610b84565b005b610214600480360381019061020f9190611273565b610e30565b005b60006020528060005260406000206000915054906101000a900460ff1681565b6000803373ffffffffffffffffffffffffffffffffffffffff1673ffffffffffffffffffffffffffffffffffffffff16815260200190815260200160002060009054906101000a900460ff166102c1576040517f08c379a00000000000000000000000000000000000000000000000000000000081526004016102b890611a49565b60405180910390fd5b60006001866040516102d39190611807565b908152602001604051809103902090508060020160009054906101000a900460ff16610334576040517f08c379a000000000000000000000000000000000000000000000000000000000815260040161032b90611a69565b60405180910390fd5b3373ffffffffffffffffffffffffffffffffffffffff168160050160009054906101000a900473ffffffffffffffffffffffffffffffffffffffff1673ffffffffffffffffffffffffffffffffffffffff16146103c6576040517f08c379a00000000000000000000000000000000000000000000000000000000081526004016103bd906119a9565b60405180910390fd5b8060040160008154809291906103db90611c5e565b91905055506040518060a0016040528086815260200185815260200184815260200183815260200160008152508160030160008781526020019081526020016000206000820151816000015560208201518160010190805190602001906104439291906110a5565b5060408201518160020155606082015181600301908051906020019061046a9291906110a5565b50608082015181600401559050507fdbbc48772584850c2086f66c22a3654c9e46524ff539fd9d72198d91cb7c13c08686866040516104ab939291906118d1565b60405180910390a1505050505050565b6001818051602081018201805184825260208301602085012081835280955050505050506000915090508060000180546104f490611c2c565b80601f016020809104026020016040519081016040528092919081815260200182805461052090611c2c565b801561056d5780601f106105425761010080835404028352916020019161056d565b820191906000526020600020905b81548152906001019060200180831161055057829003601f168201915b50505050509080600101805461058290611c2c565b80601f01602080910402602001604051908101604052809291908181526020018280546105ae90611c2c565b80156105fb5780601f106105d0576101008083540402835291602001916105fb565b820191906000526020600020905b8154815290600101906020018083116105de57829003601f168201915b5050505050908060020160009054906101000a900460ff16908060040154908060050160009054906101000a900473ffffffffffffffffffffffffffffffffffffffff16905085565b606060006060600060018560405161065c9190611807565b908152602001604051809103902090503373ffffffffffffffffffffffffffffffffffffffff168160050160009054906101000a900473ffffffffffffffffffffffffffffffffffffffff1673ffffffffffffffffffffffffffffffffffffffff16146106fe576040517f08c379a00000000000000000000000000000000000000000000000000000000081526004016106f590611a09565b60405180910390fd5b61070661112b565b600080600190505b836004015481116108aa5760008460030160008381526020019081526020016000206040518060a00160405290816000820154815260200160018201805461075590611c2c565b80601f016020809104026020016040519081016040528092919081815260200182805461078190611c2c565b80156107ce5780601f106107a3576101008083540402835291602001916107ce565b820191906000526020600020905b8154815290600101906020018083116107b157829003601f168201915b50505050508152602001600282015481526020016003820180546107f190611c2c565b80601f016020809104026020016040519081016040528092919081815260200182805461081d90611c2c565b801561086a5780601f1061083f5761010080835404028352916020019161086a565b820191906000526020600020905b81548152906001019060200180831161084d57829003601f168201915b505050505081526020016004820154815250509050828160800151111561089657806080015192508093505b5080806108a290611c5e565b91505061070e565b508160200151826040015183606001519550955095505050509193909250565b60006060600060606000806001886040516108e59190611807565b908152602001604051809103902090503373ffffffffffffffffffffffffffffffffffffffff168160050160009054906101000a900473ffffffffffffffffffffffffffffffffffffffff1673ffffffffffffffffffffffffffffffffffffffff1614610987576040517f08c379a000000000000000000000000000000000000000000000000000000000815260040161097e906119a9565b60405180910390fd5b60006001896040516109999190611807565b908152602001604051809103902060030160008981526020019081526020016000206040518060a0016040529081600082015481526020016001820180546109e090611c2c565b80601f0160208091040260200160405190810160405280929190818152602001828054610a0c90611c2c565b8015610a595780601f10610a2e57610100808354040283529160200191610a59565b820191906000526020600020905b815481529060010190602001808311610a3c57829003601f168201915b5050505050815260200160028201548152602001600382018054610a7c90611c2c565b80601f0160208091040260200160405190810160405280929190818152602001828054610aa890611c2c565b8015610af55780601f10610aca57610100808354040283529160200191610af5565b820191906000526020600020905b815481529060010190602001808311610ad857829003601f168201915b505050505081526020016004820154815250509050806000015181602001518260400151836060015184608001519650965096509650965050509295509295909350565b6000600182604051610b4b9190611807565b9081526020016040518091039020600401549050919050565b60026020528060005260406000206000915054906101000a900460ff1681565b6000600183604051610b969190611807565b908152602001604051809103902090508060020160009054906101000a900460ff16610bf7576040517f08c379a0000000000000000000000000000000000000000000000000000000008152600401610bee90611a69565b60405180910390fd5b600260003373ffffffffffffffffffffffffffffffffffffffff1673ffffffffffffffffffffffffffffffffffffffff16815260200190815260200160002060009054906101000a900460ff1615610c84576040517f08c379a0000000000000000000000000000000000000000000000000000000008152600401610c7b90611a29565b60405180910390fd5b3373ffffffffffffffffffffffffffffffffffffffff168160050160009054906101000a900473ffffffffffffffffffffffffffffffffffffffff1673ffffffffffffffffffffffffffffffffffffffff161415610d17576040517f08c379a0000000000000000000000000000000000000000000000000000000008152600401610d0e90611969565b60405180910390fd5b6001600260003373ffffffffffffffffffffffffffffffffffffffff1673ffffffffffffffffffffffffffffffffffffffff16815260200190815260200160002060006101000a81548160ff02191690831515021790555060008160030160008481526020019081526020016000209050600081600001541415610dd0576040517f08c379a0000000000000000000000000000000000000000000000000000000008152600401610dc7906119c9565b60405180910390fd5b806004016000815480929190610de590611c5e565b91905055507f4ec4c159137a6cebaa6ec2243de82cfb69559f6aa1d646783fba93cf82b036a184848360010133604051610e229493929190611916565b60405180910390a150505050565b60008251118015610e42575060008151115b610e81576040517f08c379a0000000000000000000000000000000000000000000000000000000008152600401610e7890611989565b60405180910390fd5b6000600183604051610e939190611807565b90815260200160405180910390206004015414610ee5576040517f08c379a0000000000000000000000000000000000000000000000000000000008152600401610edc906119e9565b60405180910390fd5b81600183604051610ef69190611807565b90815260200160405180910390206000019080519060200190610f1a9291906110a5565b5080600183604051610f2c9190611807565b90815260200160405180910390206001019080519060200190610f509291906110a5565b5060018083604051610f629190611807565b908152602001604051809103902060020160006101000a81548160ff0219169083151502179055506000600183604051610f9c9190611807565b90815260200160405180910390206004018190555033600183604051610fc29190611807565b908152602001604051809103902060050160006101000a81548173ffffffffffffffffffffffffffffffffffffffff021916908373ffffffffffffffffffffffffffffffffffffffff1602179055507f1594903932ed8f9b9f2f2bbc15a18c132591e2c4d3730ba56705aa661662f49c8282604051611042929190611839565b60405180910390a160016000803373ffffffffffffffffffffffffffffffffffffffff1673ffffffffffffffffffffffffffffffffffffffff16815260200190815260200160002060006101000a81548160ff0219169083151502179055505050565b8280546110b190611c2c565b90600052602060002090601f0160209004810192826110d3576000855561111a565b82601f106110ec57805160ff191683800117855561111a565b8280016001018555821561111a579182015b828111156111195782518255916020019190600101906110fe565b5b509050611127919061115a565b5090565b6040518060a0016040528060008152602001606081526020016000815260200160608152602001600081525090565b5b8082111561117357600081600090555060010161115b565b5090565b600061118a61118584611b36565b611b05565b9050828152602081018484840111156111a257600080fd5b6111ad848285611bea565b509392505050565b6000813590506111c481611d45565b92915050565b600082601f8301126111db57600080fd5b81356111eb848260208601611177565b91505092915050565b60008135905061120381611d5c565b92915050565b60006020828403121561121b57600080fd5b6000611229848285016111b5565b91505092915050565b60006020828403121561124457600080fd5b600082013567ffffffffffffffff81111561125e57600080fd5b61126a848285016111ca565b91505092915050565b6000806040838503121561128657600080fd5b600083013567ffffffffffffffff8111156112a057600080fd5b6112ac858286016111ca565b925050602083013567ffffffffffffffff8111156112c957600080fd5b6112d5858286016111ca565b9150509250929050565b600080604083850312156112f257600080fd5b600083013567ffffffffffffffff81111561130c57600080fd5b611318858286016111ca565b9250506020611329858286016111f4565b9150509250929050565b600080600080600060a0868803121561134b57600080fd5b600086013567ffffffffffffffff81111561136557600080fd5b611371888289016111ca565b9550506020611382888289016111f4565b945050604086013567ffffffffffffffff81111561139f57600080fd5b6113ab888289016111ca565b93505060606113bc888289016111f4565b925050608086013567ffffffffffffffff8111156113d957600080fd5b6113e5888289016111ca565b9150509295509295909350565b6113fb81611ba2565b82525050565b61140a81611bb4565b82525050565b600061141b82611b7b565b6114258185611b86565b9350611435818560208601611bf9565b61143e81611d34565b840191505092915050565b600061145482611b7b565b61145e8185611b97565b935061146e818560208601611bf9565b80840191505092915050565b6000815461148781611c2c565b6114918186611b86565b945060018216600081146114ac57600181146114be576114f1565b60ff19831686526020860193506114f1565b6114c785611b66565b60005b838110156114e9578154818901526001820191506020810190506114ca565b808801955050505b50505092915050565b6000611507602c83611b86565b91507f41646d696e206973206e6f7420616c6c6f77656420746f20766f746520696e2060008301527f74686520656c656374696f6e00000000000000000000000000000000000000006020830152604082019050919050565b600061156d601883611b86565b91507f496e76616c696420656c656374696f6e2064657461696c7300000000000000006000830152602082019050919050565b60006115ad602183611b86565b91507f4f6e6c79207468652061646d696e2063616e206164642063616e64696461746560008301527f73000000000000000000000000000000000000000000000000000000000000006020830152604082019050919050565b6000611613601183611b86565b91507f496e76616c69642063616e6469646174650000000000000000000000000000006000830152602082019050919050565b6000611653602a83611b86565b91507f456c656374696f6e2077697468207468652073616d65206e616d6520616c726560008301527f61647920657869737473000000000000000000000000000000000000000000006020830152604082019050919050565b60006116b9602883611b86565b91507f4f6e6c79207468652061646d696e2063616e206163636573732077696e6e657260008301527f2064657461696c730000000000000000000000000000000000000000000000006020830152604082019050919050565b600061171f601783611b86565b91507f566f7465722068617320616c726561647920766f7465640000000000000000006000830152602082019050919050565b600061175f602283611b86565b91507f4f6e6c792061646d696e2063616e20706572666f726d2074686973206163746960008301527f6f6e0000000000000000000000000000000000000000000000000000000000006020830152604082019050919050565b60006117c5601683611b86565b91507f456c656374696f6e206973206e6f7420616374697665000000000000000000006000830152602082019050919050565b61180181611be0565b82525050565b60006118138284611449565b915081905092915050565b60006020820190506118336000830184611401565b92915050565b600060408201905081810360008301526118538185611410565b905081810360208301526118678184611410565b90509392505050565b600060a082019050818103600083015261188a8188611410565b9050818103602083015261189e8187611410565b90506118ad6040830186611401565b6118ba60608301856117f8565b6118c760808301846113f2565b9695505050505050565b600060608201905081810360008301526118eb8186611410565b90506118fa60208301856117f8565b818103604083015261190c8184611410565b9050949350505050565b600060808201905081810360008301526119308187611410565b905061193f60208301866117f8565b8181036040830152611951818561147a565b905061196060608301846113f2565b95945050505050565b60006020820190508181036000830152611982816114fa565b9050919050565b600060208201905081810360008301526119a281611560565b9050919050565b600060208201905081810360008301526119c2816115a0565b9050919050565b600060208201905081810360008301526119e281611606565b9050919050565b60006020820190508181036000830152611a0281611646565b9050919050565b60006020820190508181036000830152611a22816116ac565b9050919050565b60006020820190508181036000830152611a4281611712565b9050919050565b60006020820190508181036000830152611a6281611752565b9050919050565b60006020820190508181036000830152611a82816117b8565b9050919050565b6000602082019050611a9e60008301846117f8565b92915050565b600060a082019050611ab960008301886117f8565b8181036020830152611acb8187611410565b9050611ada60408301866117f8565b8181036060830152611aec8185611410565b9050611afb60808301846117f8565b9695505050505050565b6000604051905081810181811067ffffffffffffffff82111715611b2c57611b2b611d05565b5b8060405250919050565b600067ffffffffffffffff821115611b5157611b50611d05565b5b601f19601f8301169050602081019050919050565b60008190508160005260206000209050919050565b600081519050919050565b600082825260208201905092915050565b600081905092915050565b6000611bad82611bc0565b9050919050565b60008115159050919050565b600073ffffffffffffffffffffffffffffffffffffffff82169050919050565b6000819050919050565b82818337600083830152505050565b60005b83811015611c17578082015181840152602081019050611bfc565b83811115611c26576000848401525b50505050565b60006002820490506001821680611c4457607f821691505b60208210811415611c5857611c57611cd6565b5b50919050565b6000611c6982611be0565b91507fffffffffffffffffffffffffffffffffffffffffffffffffffffffffffffffff821415611c9c57611c9b611ca7565b5b600182019050919050565b7f4e487b7100000000000000000000000000000000000000000000000000000000600052601160045260246000fd5b7f4e487b7100000000000000000000000000000000000000000000000000000000600052602260045260246000fd5b7f4e487b7100000000000000000000000000000000000000000000000000000000600052604160045260246000fd5b6000601f19601f8301169050919050565b611d4e81611ba2565b8114611d5957600080fd5b50565b611d6581611be0565b8114611d7057600080fd5b5056fea264697066735822122005c68dcbac1f78c2bedc5fdc1c529603b7f46e40457e00de5eebffd05aeef6a164736f6c63430008000033",
  "immutableReferences": {},
  "source": "// SPDX-License-Identifier: GPL-3.0\npragma solidity ^0.8.0;\n\ncontract Election {\n    // Struct to store candidate details\n    struct Candidate {\n        uint id;\n        string name;\n        uint voterId;\n        string partyName;\n        uint voteCount;\n    }\n\n    // Struct to store election details\n    struct ElectionDetails {\n        string name;\n        string description;\n        bool isActive;\n        mapping(uint => Candidate) candidates;\n        uint candidateCount;\n        address admin;\n    }\n\n    mapping(address => bool) public admins;\n    mapping(string => ElectionDetails) public elections;\n    mapping(address => bool) public voters;\n\n    event ElectionCreated(string name, string description);\n    event CandidateAdded(\n        string electionName,\n        uint candidateId,\n        string candidateName\n    );\n    event VoteCast(\n        string electionName,\n        uint candidateId,\n        string candidateName,\n        address voter\n    );\n\n    modifier onlyAdmin() {\n        require(admins[msg.sender], \"Only admin can perform this action\");\n        _;\n    }\n\n    function createElection(\n        string memory name,\n        string memory description\n    ) public {\n        require(\n            bytes(name).length > 0 && bytes(description).length > 0,\n            \"Invalid election details\"\n        );\n        require(\n            elections[name].candidateCount == 0,\n            \"Election with the same name already exists\"\n        );\n\n        elections[name].name = name;\n        elections[name].description = description;\n        elections[name].isActive = true;\n        elections[name].candidateCount = 0;\n        elections[name].admin = msg.sender;\n        emit ElectionCreated(name, description);\n        admins[msg.sender] = true;\n    }\n\n    function addCandidate(\n        string memory electionName,\n        uint id,\n        string memory name,\n        uint voterId,\n        string memory partyName\n    ) public onlyAdmin {\n        ElectionDetails storage election = elections[electionName];\n        require(election.isActive, \"Election is not active\");\n        require(\n            election.admin == msg.sender,\n            \"Only the admin can add candidates\"\n        );\n\n        election.candidateCount++;\n        election.candidates[id] = Candidate(id, name, voterId, partyName, 0);\n        emit CandidateAdded(electionName, id, name);\n    }\n\n    function vote(string memory electionName, uint candidateId) public {\n        ElectionDetails storage election = elections[electionName];\n        require(election.isActive, \"Election is not active\");\n        require(!voters[msg.sender], \"Voter has already voted\");\n        require(\n            election.admin != msg.sender,\n            \"Admin is not allowed to vote in the election\"\n        );\n        voters[msg.sender] = true;\n\n        Candidate storage candidate = election.candidates[candidateId];\n        require(candidate.id != 0, \"Invalid candidate\");\n\n        candidate.voteCount++;\n        emit VoteCast(electionName, candidateId, candidate.name, msg.sender);\n    }\n\n    function getElectionCandidateCount(\n        string memory electionName\n    ) public view returns (uint) {\n        return elections[electionName].candidateCount;\n    }\n\n    function getCandidateDetails(\n        string memory electionName,\n        uint candidateId\n    ) public view returns (uint, string memory, uint, string memory, uint) {\n        ElectionDetails storage election = elections[electionName];\n        require(\n            election.admin == msg.sender,\n            \"Only the admin can add candidates\"\n        );\n        Candidate memory candidate = elections[electionName].candidates[\n            candidateId\n        ];\n        return (\n            candidate.id,\n            candidate.name,\n            candidate.voterId,\n            candidate.partyName,\n            candidate.voteCount\n        );\n    }\n\n    function getWinnerDetails(\n        string memory electionName\n    ) public view returns (string memory, uint, string memory) {\n        ElectionDetails storage election = elections[electionName];\n        require(\n            election.admin == msg.sender,\n            \"Only the admin can access winner details\"\n        );\n        Candidate memory winner;\n        uint maxVotes = 0;\n        for (uint i = 1; i <= election.candidateCount; i++) {\n            Candidate memory candidate = election.candidates[i];\n            if (candidate.voteCount > maxVotes) {\n                maxVotes = candidate.voteCount;\n                winner = candidate;\n            }\n        }\n        return (winner.name, winner.voterId, winner.partyName);\n    }\n}\n",
  "sourcePath": "/home/vipi/FinalProject/votem/client/contracts/ElectionContract.sol",
  "compiler": {
    "name": "solc",
    "version": "0.8.0+commit.c7dfd78e.Emscripten.clang"
  },
  "schemaVersion": "3.4.14",
  "updatedAt": "2023-05-28T12:39:09.386Z",
  "devdoc": {
    "kind": "dev",
    "methods": {},
    "version": 1
  },
  "userdoc": {
    "kind": "user",
    "methods": {},
    "version": 1
  }
}